:020000040802F0
:1040000000000120B9430508CD41050829DF040857
:10401000CF410508D1410508D34105080000000043
:10402000000000000000000000000000D74105086B
:10403000D541050800000000D9410508DB4105080D
:10404000DD410508DF410508E1410508E3410508B8
:10405000E5410508E7410508E9410508EB41050888
:10406000ED410508EF410508F1410508F341050858
:10407000F5410508F7410508F9410508FB41050828
:10408000FD410508FF4105080142050803420508F6
:10409000074205080B4205080D4205080F420508B6
:1040A0001142050813420508154205081742050884
:1040B000194205081B42050831430508334305082A
:1040C0003543050837430508394305083B430508D0
:1040D0003D4305083F4305084D4305084F43050888
:1040E0005143050853430508554305085743050840
:1040F000594305085B4305085D4305085F43050810
:1041000061430508634305086543050867430508DF
:10411000694305086B4305086D4305086F430508AF
:10412000714305087343050875430508774305087F
:1041300044534F5F4150503A204761626F6E617443
:104140006F72277320616C7465726E617469766535
:104150002055493B416C7465722055493B4761626B
:104160007269656C2056616C6B7920323031333B5B
:0C4170000000000042494F535DC40408E9
:020000040804EE
:10C00000014B1868704700BF8CA6002020B1036860
:10C01000197003680133036070472DE9F041161E63
:10C0200004460D4614DD002200E00132A95C00291F
:10C03000FBD1B24203F00208B4BFC2EB06060E46C3
:10C04000B8F1000F0CBF4FF020084FF0300801E0AE
:10C050004FF0200813F0010709D105E020464146C2
:10C06000FFF7D4FF0137013E002EF7DC05E0002783
:10C0700003E02046FFF7CAFF013715F8011B00292E
:10C08000F7D105E020464146FFF7C0FF0137013EEA
:10C09000002EF7DC3846BDE8F0812DE9FF410A9F0C
:10C0A00005460B9EDDF830C08E4651B930238DF821
:10C0B00004308DF805103A4601A93346FFF7ADFF6D
:10C0C0003CE03BB10A2A07D1002905DAC1F1000E94
:10C0D000012402E01C4600E0002404A9002301F82A
:10C0E000013D0EE0BEFBF2F302FB13EEBEF1090FC1
:10C0F000C4BFACF13A0086440EF1300E01F801EDF8
:10C100009E468846BEF1000FECD184B14FB116F0C7
:10C11000020F06D028462D21FFF778FF013F0124AA
:10C1200005E02D2301F1FF3801F8013C00242846E9
:10C1300041463A463346FFF770FF001904B0BDE8A8
:10C14000F081054B10B5196804460320B8F77EF856
:10C15000024B1C8010BD00BF003000209AA60020BA
:10C1600008B500210420B8F775F8C3439BB2C3F3A8
:10C17000802013F4006F1CBF40F0020080B213F463
:10C18000805F18BF40F4807013F0080F18BF40F0B4
:10C19000040013F4004F18BF40F0080013F0400FE4
:10C1A00018BF40F4007013F4804F18BF40F0100027
:10C1B00013F4005F18BF40F0200013F4807F18BF15
:10C1C00040F0400013F4007F18BF40F0800008BD2D
:10C1D0002DE9F14F0A9C1E460B9B88461746511EBF
:10C1E00004EB4309C6F1F002C8F1EF03054689B23A
:10C1F00080B292B29BB2B8F711F8A2460CE03AF8BE
:10C20000020BB8F705F8CA4508BFA2460BF1010BAF
:10C21000BB45F4DB08F10108B04501DAAB46F7E7AE
:10C22000002040F28F110246EF2301B0BDE8F04F2D
:10C23000B7F7F4BFC1F1EF0110B580B289B214466F
:10C24000B7F7E4FF2046BDE81040B7F7E1BF2DE99E
:10C25000F0478AB006460D4605920024EDE0252BF6
:10C2600040F0E58015F8013F002B00F0EA80252B17
:10C2700000F0DD802D2B02D101352C3B03E00023A3
:10C2800001E043F00203294615F8012B302AF8D0CB
:10C29000002702E00A2202FB07070A780D46A2F1F6
:10C2A00030005FFA80FC0131BCF1090FF2D9732A2A
:10C2B0000DD1059A3046111D05911168654A002976
:10C2C00008BF11463A46FFF7A8FE2418B4E0642AD6
:10C2D0000ED1059A01936123111D029300970591D8
:10C2E00030461168603B0A22FFF7D7FE2418A3E00E
:10C2F000662A57D1059B073323F0070303F1080291
:10C30000D3E9000105921BF09BF9002180461BF048
:10C3100093FC38B12D238DF8183008F100480DF149
:10C32000190A01E00DF1180A40461BF0ADFC01238B
:10C3300000E013460A225A439042FADA90FBF3F2E5
:10C3400002F1300103FB12000A2293FBF2F30AF818
:10C35000011B002BF2D124328AF80020002F08BFE5
:10C360000327994640461BF08FFC1BF073FA0146E9
:10C3700040461BF0B9F938491BF0C0FA80461BF063
:10C3800083FC09F101093030B9450AF8010FE9DBF6
:10C390000022304606A920238AF80120FFF73DFE3F
:10C3A000241849E0782A0ED1059A01936123111DC2
:10C3B00002930097059130461168613B1022FFF708
:10C3C0006CFE241838E0582A0ED1059A01934123B7
:10C3D000111D02930097059130461168413B1022D0
:10C3E000FFF75BFE241827E0752A0ED1059A01930A
:10C3F0006123111D02930097059130461168613B3E
:10C400000A22FFF74AFE241816E0632A14D1059A7F
:10C410003046111D126805918DF8242000228DF8F8
:10C42000252009A93A46FFF7F8FD241804E0304614
:10C430002978FFF7EBFD013401352B78002B7FF4D1
:10C440000EAF16B1336800221A7020460AB0BDE85C
:10C45000F08700BFBCBC06080000204110B5414970
:10C4600004461BF0E3FD002838D020463E491BF06F
:10C47000DDFD002839D020463C491BF0D7FD0028BF
:10C480003AD020463A491BF0D1FD00283BD0204647
:10C4900038491BF0CBFD00283CD0204636491BF024
:10C4A000C5FD08B9354810BD204635491BF0BEFD15
:10C4B00008B9344810BD204633491BF0B7FD08B910
:10C4C000324810BD204632491BF0B0FD08B9314852
:10C4D00010BD204630491BF0A9FD08B92F4810BDFA
:10C4E00020462F491BF0A2FD08B92E4810BD20465A
:10C4F0002D491BF09BFD08B92C4810BD20462C4946
:10C500001BF094FD08B92B4810BD20462A491BF0AA
:10C510008DFD08B9294810BD204629491BF086FD2C
:10C5200008B9284810BD204627491BF07FFD08B9EF
:10C53000264810BD204626491BF078FD08B925483D
:10C5400010BD204624491BF071FD08B9234810BDD9
:10C55000204623491BF06AFD224B00280CBF1846D9
:10C56000002010BDC3BC0608D7BC0608E8BC0608FE
:10C57000FBBC06080EBD060820BD0608553F050891
:10C5800034BD06086D4200083FBD0608054200089C
:10C590004ABD060801420008CEBC060835C20408A0
:10C5A000E2BC06086BD50408F3BC060861C10408A8
:10C5B00006BD0608E9C5040819BD0608AFD504087C
:10C5C00053BD0608BDD604085DBD06083DC6040877
:10C5D00067BD060801C004087ABD0608D1C1040879
:10C5E0008DBD060843C1040810B505280DD8DFE845
:10C5F00000F01012030507090B4C0DE00B4C0BE08B
:10C600000B4C09E04FF0006406E040F00100804769
:10C6100010BD084C00E0084C206807F085FD6368F9
:10C620009847012010BD00BF00C00108004002086B
:10C630000040000800C00008004001080020D3E7C7
:10C64000014BD86C80B27047002401400146142091
:10C65000B7F7FCBD034B18801A8892B2002AFBD1B1
:10C66000704700BF98A6002030B5002308E00A24D8
:10C67000B0FBF4F104FB11003030D054013388B228
:10C68000084A0028F3D1D0545910013BD31804E0D4
:10C69000145C5D7815545C700130013B8842F7DB17
:10C6A000004830BD7432002008B506200021B7F7DD
:10C6B000D1FD5A234343A3F58223A3F56B6340F2D4
:10C6C000145093FBF0F00A306428A8BF642020EADD
:10C6D000E07008BD0128ACBF014601210220B7F778
:10C6E000B5BD00EBD070024B40101860704700BF22
:10C6F00000300020052898BF174B30B594BF53F881
:10C700002030002303F548711A461046134C52F8A6
:10C71000045BA5421ED08A42F7D11A6810495D68B1
:10C7200002EA0101B1F1005F9C68D8680FD19D4217
:10C730000DD995420BD29C4209D9944207D2984216
:10C7400007D9084B904234BF1846002030BD002066
:10C7500030BD002030BD00BFC8AD060844534F5F58
:10C76000FF0000FF9DBD0608C0B2B7F76FBD47F2DE
:10C770006623984201D1B7F75DBDC0B2B7F76ABD75
:10C7800043680A6823F4702323F4807313430A79FF
:10C7900010B543EA022343608A68CB6884681A4371
:10C7A000094B04EA030342EA03034A7943EA4203DA
:10C7B00083600B7CC26A013B22F47002DBB242EA66
:10C7C0000353C36210BD00BFFDF7F1FF00230360F8
:10C7D000037143718360C36001330374704721B1F7
:10C7E000836843F0010383607047836823F001038B
:10C7F0008360704721B1836843F48073836070471E
:10C80000836823F4807383607047C9B21AB14368A8
:10C81000194341607047436823EA01014160704752
:10C82000836843F00803836070478068C0F3C000EA
:10C830007047836843F00403836070478068C0F3E7
:10C840008000704721B1836843F4A0038360704780
:10C85000836823F4A003836070478068C0F380502E
:10C8600070474368013923F4604343EA413343602E
:10C87000704721B1436843F40063436070474368E5
:10C8800023F4006343607047092970B54FEA4104FF
:10C890000BD964181E3C0725A540A340C66826EAAC
:10C8A000050545EA0304C4600AE064180725A540AD
:10C8B00013FA04F4066926EA050545EA0403036150
:10C8C000062A0CD8013A02EB82021F2393409140C2
:10C8D000446B24EA030343EA0102426370BD0C2A5D
:10C8E0004FEA82030BD89A18233A1F2393409140B2
:10C8F000046B24EA030343EA0102026370BD9A1841
:10C90000413A1F2393409140C46A24EA030343EA57
:10C910000102C26270BD21B1836843F48013836059
:10C920007047836823F4801383607047C06C80B2C3
:10C930007047014B186870474C24014021B143688F
:10C9400043F4806343607047436823F4806343602B
:10C95000704721B1436843F4805343607047436894
:10C9600023F4805343607047836823F4E04341EA33
:10C9700003038360704721B1836843F400438360FD
:10C980007047836823F400438360704721B1836854
:10C9900043F4021383607047836823F402138360B7
:10C9A00070478068C0F340507047092970B54FEA5E
:10C9B00041040BD964181E3C0725A540A340C66856
:10C9C00026EA050545EA0304C4600AE06418072561
:10C9D000A54013FA04F4066926EA050545EA0403AE
:10C9E0000361836B03F440146FEA14541219033289
:10C9F000D2B202EB82021F249440914023EA040346
:10CA00000B43836370BD836B013923F4401343EA06
:10CA100001538363704782B00A5002B0704782B0FE
:10CA200001902830405880B202B07047436823F428
:10CA3000400323F4007341EA0303436070474162FB
:10CA400082627047436823F01F0341EA0303436097
:10CA50007047064B20B19A6842F400029A60704712
:10CA60009A6822F400029A60704700BF00240140D7
:10CA7000036819420CBF002001207047C9430160C0
:10CA800070474368006810EA112004D0C9B2194207
:10CA90000CBF0020012070476FEA11210160704730
:10CAA000054B19B1DA681043D8607047DA6822EA9A
:10CAB0000000D860704700BF0010024007B5154B5A
:10CAC0000190984210D0144B984218D0134B9842C2
:10CAD0001FD101214FF40070FFF7E2FF4FF4007007
:10CAE0000021FFF7DDFF14E001214FF48060FFF724
:10CAF000D7FF4FF480600021FFF7D2FF09E04FF429
:10CB000000400121FFF7CCFF4FF400400021FFF768
:10CB1000C7FF0EBD00280140003C01400024014039
:10CB2000054B19B15A691043586170475A6922EA96
:10CB300000005861704700BF00100240054B19B15A
:10CB40009A691043986170479A6922EA00009861D7
:10CB5000704700BF0010024008B50120FFF779FFC1
:10CB600010210A4801220523FFF78EFE0120FFF75E
:10CB700071FD06480121FFF765FE02210348FFF71A
:10CB800077FF0128F9D1FFF75BFD08BD00240140C4
:10CB900008B50120FFF75DFF11210A480122052396
:10CBA000FFF772FE0120FFF755FD06480121FFF750
:10CBB00049FE02210348FFF75BFF0128F9D1FFF787
:10CBC0003FFD08BD00240140084B5A68B2F1FF3F09
:10CBD00007D1074A07491068401A18BF012058605A
:10CBE00011605868003818BF0120704700300020DD
:10CBF000F0170020708AB06A0048704700080020D3
:10CC00004FF47F607047024B0E2202FB00307047EA
:10CC1000E0AD0608034B18801A8892B2002AFBD1B7
:10CC2000704700BF98A60020044A4FF48053136059
:10CC30004FF0C0421080024A136070471414014044
:10CC40001014014010B5EF20FFF7EEFF4FF0C04386
:10CC50001A881C8818881A881988C3B2C9B241EA90
:10CC6000046141EA0343120643EA1242014B9A600F
:10CC700010BD00BF74320020054B4FF480521A6083
:10CC80004FF0C0431880034802601980704700BF0E
:10CC900014140140101401402DE9F041E9204FF037
:10CCA000C044FFF7C1FF202222801120FFF7BCFF04
:10CCB0006420FFF7AFFFD120FFF7B6FF0025172252
:10CCC0005E232580D02023802280FFF7ADFF0C2635
:10CCD00007232380362023804FF040082680FFF76B
:10CCE000A3FF3046A4F800804936FFF79DFF268059
:10CCF0003A20FFF799FF2680C120FFF795FF533EAA
:10CD000010232380C020238026802680FFF78CFFFD
:10CD1000012735232580C520238025802580278075
:10CD20002680FFF781FF2780D220FFF77DFF222397
:10CD30002780C8202380FFF777FF732237232780BF
:10CD40002280238004220F232580238026802280B6
:10CD50006722A4F8008022802580802226802380FC
:10CD600008232380292022802580FFF75DFF2C20C7
:10CD7000BDE8F04158E7002008B50146FFF77CFF09
:10CD800000200146FFF778FF00200146FFF774FFFF
:10CD900000200146FFF770FF0A20FFF73BFF01214B
:10CDA0004FF4C060FFF768FF0A20FFF733FF402110
:10CDB0004FF4DE60FFF760FF0A20FFF72BFF4FF410
:10CDC00080604FF4C441FFF757FF082040F6080188
:10CDD000FFF752FF01204FF48071FFF74DFF022053
:10CDE0004FF48071FFF748FF03203021FFF744FF25
:10CDF00009200121FFF740FF0C200021FFF73CFF35
:10CE000090204FF40041FFF737FF0F200021FFF77C
:10CE100033FF10201621FFF72FFF112040F20111E0
:10CE2000FFF72AFF12200021FFF726FF1320012120
:10CE3000FFF722FF4FF480704FF44C71FFF71CFF97
:10CE400040F2011040F23721FFF716FF40F20310C5
:10CE50004FF47061FFF710FF4FF420704FF4D6418C
:10CE6000FFF70AFF4CF2B0114FF48170FFF704FF97
:10CE70006420FFF7CFFE4FF440704FF44061FFF79E
:10CE8000FBFE40F2013045F60B21FFF7F5FE40F2C4
:10CE9000023040F60611FFF7EFFE40F2033041F298
:10CEA0001701FFF7E9FE4FF441704FF40C51FFF703
:10CEB000E3FE40F205304FF4B851FFF7DDFE40F2DB
:10CEC000063046F20931FFF7D7FE40F2073040F650
:10CED0000941FFF7D1FE4FF4427041F20C01FFF718
:10CEE000CBFE40F2093042F23221FFF7C5FE4FF48B
:10CEF00004700021FFF7C0FE40F21120EF21FFF780
:10CF0000BBFE40F212200021FFF7B6FE40F21320D4
:10CF100040F28F11FFF7B0FE4FF4A0600021FFF741
:10CF2000ABFE40F201500021FFF7A6FE40F2025096
:10CF30000521FFF7A1FE40F201400121FFF79CFE11
:10CF4000002140F20440FFF797FE6420FFF762FEE5
:10CF50004FF480710720FFF78FFE6420FFF75AFE21
:10CF60004FF400700021FFF787FE002140F20120FE
:10CF7000FFF782FE054A4FF48053136040F202210E
:10CF80004FF0C0421180024A136008BD14140140E2
:10CF90001014014070B5104C4FF480534FF40065ED
:10CFA000236001202560FFF735FE0C4B0A201D6031
:10CFB000FFF730FE32202560FFF72CFEFFF742FE20
:10CFC000074B9A68074B9A4202D1BDE8704063E66E
:10CFD000BDE87040CFE600BF1014014014140140BA
:10CFE00074320020279304020B4B10B59A680B4B48
:10CFF0004FF0C0449A4209D12E20FFF715FE238836
:10D0000024882C20A4B2FFF70FFE02E02388248896
:10D01000A4B2204610BD00BF743200202793040242
:10D020000EB403B503AA52F8041B019001A80092A4
:10D03000FFF70DF9BDE80C4003B07047AAE713B540
:10D0400002AC24F8020D00200146B7F7DFF82046B5
:10D050004BF68031B7F7E8F8B7F7E2F820464BF621
:10D060008031B7F7E1F8B7F7DBF81CBDC1F1EF018C
:10D0700010B580B289B2B7F7C9F8BDE81040B7F76C
:10D08000F3B838B5151A5C1A6C434BF67F35AC42D1
:10D0900080B202F1FF35C3F1F0020FD9C1F1EF0305
:10D0A00092B2A9B29BB26508B7F7B8F804A8A9B2C2
:10D0B000B7F7BAF8641BB7F7B3F806E0C1F1EF03AE
:10D0C00092B2A9B29BB2B7F7A9F804A8A1B2B7F778
:10D0D000ABF8B7F7A5F8002040F28F110246EF2316
:10D0E000B7F79CF838BD37B50D46B0F902100446C5
:10D0F0004B1CB0F90000B4F904200095FFF7C1FF04
:10D10000B4F90630B4F90000591EB4F904200095B2
:10D11000FFF7B7FFB4F90000B4F90210421CB4F9EC
:10D1200006300095FFF7ADFFB4F90420B4F9021002
:10D13000B4F90630501E0095FFF7A3FF3EBD2DE960
:10D14000F843B0F80080044689461FFA88F70026A5
:10D1500015E0B4F90650013D0AE0C5F1EF0138468B
:10D1600089B2B7F753F8FFF73FFF013D29F8020BEB
:10D17000B4F902309D42F0DA01370136BFB20FFA3E
:10D1800088F2B4F90430B2189A42E2DBBDE8F883C1
:10D190002DE9F047C28843880D468188C2F1F0022C
:10D1A0000139C3F1EF03044689B2008892B29BB201
:10D1B000B7F734F80026B4F8028010E0B4F8009015
:10D1C000002703E035F8020BB7F722F80FFA89F2CF
:10D1D000B4F90430BA1801379A42F3DB01360FFA7A
:10D1E00088F2B4F90630B2189A42E7DB002040F228
:10D1F0008F110246EF23BDE8F047B7F70FB813B51C
:10D200000346B3F90240B3F90420B0F90000B3F9C2
:10D21000063000912146FFF734FF1CBD0268034B26
:10D22000DA6042681A6102685A61704774320020FD
:10D2300010B50B4C0246B4F91610B4F91400FEF701
:10D24000F9FFA38AB4F910200133A3821BB29A42DA
:10D2500004DCA389A382E38A0133E38210BD00BF0B
:10D260007432002070472DE9F74F99460C9B0191CD
:10D27000924613F801BB054600241FE018F8013B55
:10D280000BB313F0040F4FF61E0307D09A450CD0D2
:10D29000284631465246FEF7CDFF06E0994504D0B8
:10D2A000284631464A46FEF7C5FF013701365F453D
:10D2B0004346E3DB01340135502C03D0019E9846F0
:10D2C0000027F4E708242046BDE8FE8F2DE9F04151
:10D2D0001E460F46B6B2C7F1F00714460546B6F72C
:10D2E000A5FFB91BA8B289B2B6F790FF2046314618
:10D2F000B6F798FFBDE8F041B6F792BF30F00303F0
:10D3000009D131F0030208D140EA8100044909182B
:10D3100091F8180E7047002070471846704700BFFC
:10D32000C8AD06082DE9F04F85B004469A469DF831
:10D3300039009DF838300D4616469DF83AB00290F7
:10D340000393274645E0C5EB0A01701E0139C01B57
:10D350003B1BC8EB01019842A8BF18464145A8BF36
:10D360004146FFF7CBFF68BBC9F1EF0189B2B8B204
:10D37000B6F74CFFB6F778FF1A4BC10001F0FF017A
:10D38000C208000A00EA0303C1EB0B000190DDF8BC
:10D3900008C0039802F0FC02C2EB0C0EC3EB000CB9
:10D3A00003EB6C03DDF804C0DB1001EB6C00C01074
:10D3B00040EAC32302EB6E00801043EA401080B2C3
:10D3C000B6F726FF09F1010908F10108D145BADBDA
:10D3D0000137B74203DAA9464FF00008F6E705B077
:10D3E000BDE8F08FF8FF07002DE9F74F06468A46A3
:10D3F00015461C46BDF830B088462DE00AF10303FF
:10D40000984509D1E71E414630462A463B46CDF8AD
:10D4100000B0FFF736FEB846B146002718E0A81B5B
:10D420000138611EC01BC8EB0101CAEB0803B842FA
:10D43000A8BF38469942A8BF1946FFF75FFF20B939
:10D44000484641465A46FEF7F5FE09F10109013703
:10D45000A945E4DB08F10108A045CFDBBDE8FE8F5C
:10D4600013B50346B3F90240B3F90420B0F9000044
:10D47000B3F9063000912146FFF7B6FF1CBD2DE938
:10D48000F74F01909DF830001F460D469246FFF77A
:10D49000BAFB4FF61E039F4283461DD100241BF8A2
:10D4A0000480019F6FEA08085FFA88F8082618F0E0
:10D4B000800F04D0384661195246FEF7BBFE013E8C
:10D4C000F6B2013726B14FEA48085FFA88F8EEE76E
:10D4D00001340E2CE3D145E09A451FD100241BF8FE
:10D4E0000490DDF804806FEA09095FFA89F90826DB
:10D4F00019F0800F04D1404661193A46FEF79AFEB2
:10D50000013EF6B208F1010826B14FEA49095FFA77
:10D5100089F9EDE701340E2CE1D123E000241BF85A
:10D520000490019E6FEA09095FFA89F94FF0080833
:10D5300019F0800F08F1FF38304614BF52463A46C2
:10D5400029465FFA88F8FEF775FE0136B8F1000F3C
:10D5500004D04FEA49095FFA89F9E9E70134013556
:10D560000E2CDCD10820BDE8FE8F2DE9F7430A9F81
:10D5700005460E4691469846AFB1387818B913E083
:10D580000A2B02D110362C4607E000932046314684
:10D590004A464346FFF773FF241817F8013B002B58
:10D5A000EED1601B00E03846BDE8FE83DDE72DE9E3
:10D5B000F043A5B015462CAA0E4652F8041B0746A8
:10D5C0000DF1080823A899462292CDF88C80FEF729
:10D5D0003EFE314604462A4638464B46CDF800808A
:10D5E000FFF7E4FF204625B0BDE8F08337B5124BC6
:10D5F00005460C46009330211F2328204FF6FF726A
:10D60000FFF7D4FF20211F234FF6FF72282000953B
:10D61000FFF7CCFFA0B2FFF727F8102100904FF6DC
:10D62000FF7228201F23FFF7C1FF4FF47A7003B069
:10D63000BDE83040FFF70EB8A5BD060808B50248A2
:10D640000421FFF7D3FFFEE7B7BD06080FB430B5DE
:10D65000A5B028AA52F8041B02AC23A82394229256
:10D66000FEF7F5FD23941EE00A2B134C03D0A569A9
:10D67000B5F5C47F09DBE26900230E32E02AA3611D
:10D68000E2610DDD0C4AD3610AE000932846E169AE
:10D690004FF6FF724FF43043FFF7F1FE4019A061DF
:10D6A000239B01332393239B1B78002BDCD125B0D4
:10D6B000BDE8304004B07047743200200048C5E730
:10D6C000DDBD06082DE9F74FC0EB020B5F1A1FFA0C
:10D6D0008BFBBFB20FFA8BFA0FFA87F84FEADB3BEE
:10D6E000FF0BBDF83090BAF1000FD4BFCBF1000BA7
:10D6F000CBF1010BB8F1000FD4BF7F42C7F1010796
:10D70000BAF1000FB8BFCAF1000AB8F1000FB8BFF4
:10D71000C8F100084FEA4A0A4FEA480800921FFA87
:10D720008AFA1FFA88F84A46019304460D460FFA12
:10D730008AF6FEF77FFD0FFA88F39E4220DB1FFA80
:10D7400088F8A8EB6606B6B216E016F4004F09D1C9
:10D750001EB94FFA8BF3002B04DD7BB2CAEB060631
:10D76000ED18B6B24FFA8BF3E4184644204629462A
:10D770004A46B6B2FEF75EFD009B9C42E5D11EE034
:10D780001FFA8AFAAAEB6306B6B215E016F4004F48
:10D7900009D116B97BB2002B05DD4FFA8BF3C8EB2C
:10D7A0000606E418B6B27BB2ED1856442046294668
:10D7B0004A46B6B2FEF73EFD019B9D42E6D1BDE86A
:10D7C000FE8F0020FFF71FBA07B50B200021B6F728
:10D7D00041FD40B9074B303000931E211F224FF608
:10D7E000FF73FFF7C2FE1420002103B05DF804EBC5
:10D7F000B6F72CBDE7BD0608024B0146187224207F
:10D80000B6F724BD00300020014B187A704700BFE6
:10D810000030002070B50CE09C1804EBD474641048
:10D8200050F8246025468E4201D2621C01E004D9E2
:10D83000631E9342F0DA4FF0FF35284670BD2DE9A4
:10D84000F84F214C074604F5626008300E46154635
:10D850009846002215230C99FFF7DCFFB0F1FF3F3B
:10D860009DF82890BDF82CA083462AD00C9A174B1F
:10D870000520DA600021B6F7E9FC09203946B6F741
:10D88000E5FC0A203146B6F7E1FC00202946B6F750
:10D89000DDFC0B204146B6F7D9FC0C204946B6F713
:10D8A000D5FC04EB4B0401205146B6F7CFFC072012
:10D8B000B4F8801EB6F7CAFC0820B4F8AC1EB6F760
:10D8C000C5FCBDE8F88F00BFC8AD060800300020D9
:10D8D00008B503200021B6F7BDFCC0B208BDB6F7FD
:10D8E000A9BC08B506200121B6F7B0FCFEF788FBFD
:10D8F000014B186208BD00BF743200202DE9F041D1
:10D9000006460C462220314615461F46B6F79EFCB9
:10D9100021202146B6F79AFC202047EAC501BDE840
:10D92000F041B6F793BCB0F5805F70B503DD0A48EF
:10D93000CA21FFF75BFE094C04F580452668FFF716
:10D94000CEFF06F07F4620F07F4040EA060644F80E
:10D95000046BAC42F2D170BD00BE0608F834002062
:10D960004FF480507047B0F5805F10B5044603D384
:10D970000348DB21FFF73AFE024800EB840010BDAC
:10D9800000BE0608F834002010B500210220B6F7CA
:10D9900061FC00210120B6F75DFC002100F00104CC
:10D9A0000320B6F757FC10F0010F18BF44F0020433
:10D9B000204610BD08B5FEF723FB0B4B1B6AC01AAF
:10D9C00019F048FF09491AF04DF8094BD9681AF0C7
:10D9D00049F8084919F092FF1AF056F9B0F5805F3E
:10D9E000A8BF4FF4805008BD7432002000007A4474
:10D9F000003000200000F041034670B510200C46B6
:10DA000019461546B6F722FC11202146B6F71EFC32
:10DA100012202946BDE87040B6F718BC094B10B576
:10DA20001A68094C22F001021A60084A146043F295
:10DA3000B0521A60064A116090601A6842F0010202
:10DA40001A6010BD44040240087400404C040240B7
:10DA500048040240074B10B523F8240F1846012153
:10DA6000FFF7DCFF0D204FF46161BDE81040B6F711
:10DA7000EDBB00BF7432002001460D20B6F7E6BBB7
:10DA8000004870479A32002008B503460273002010
:10DA9000012A587309D11A460B480833B6F7F6FB2A
:10DAA000D0F1010038BF002008BD022A09D11A4672
:10DAB00005480833B6F7E8FBD0F1010038BF002075
:10DAC00008BD012008BD00BF9A32002008B50346FA
:10DAD00008461946B6F7DCFBD0F1010038BF00203C
:10DAE00008BD10B5044608462146B6F7D3FB20B959
:10DAF000637B01300133637310BD002010BD10B58E
:10DB0000037B0446022B10D1B1F1FF3F08BF417BDC
:10DB1000224608BF4902074804F10803B6F7BCFBD8
:10DB200028B903232373013010BD012010BD00204C
:10DB300010BD00BF9A320020024B034A93FBF0F362
:10DB40001381704700A24A040038014005E0054AED
:10DB5000118811F0800FFAD0938010F8013B002B50
:10DB6000F5D17047003801400F4B10489A6942F4D4
:10DB700080429A610E4A40F27123138142F22C03D3
:10DB80009381138823F4A46323F005031B041B0C67
:10DB90001380084B5A6822F47F6242F40A625A608A
:10DBA0004FF480621A61D1E7001002402ABE0608D5
:10DBB000003801400008014010B5FFF705F850B1EA
:10DBC0004FF4FA70FEF746FDFFF738FA04480549AE
:10DBD000054AFFF725FAFFF7F7FDBDE81040C3E758
:10DBE0000008002039BE06085DC4040806F0CEBA5D
:10DBF000034B1A8812F0800FFAD09880704700BF4C
:10DC0000003801400E200021B6F724BB0D20002172
:10DC1000B6F720BB0F200021B6F71CBB1020002157
:10DC2000B6F718BBB6F70ABB014B9868704700BF40
:10DC3000743200202DE9F0433F3189B0234B8046F8
:10DC400087B28CB2ADF1020213F8010C1978C01042
:10DC50008910C002490141185878043301EBD00102
:10DC600022F8021F1A498B42EED11A4E3D4616F891
:10DC7000013B08AA1B0902EB430328460135214654
:10DC800033F8202CADB208F1FF09FEF7D3FA4D4569
:10DC900002DD013CA4B23D4616F8013C08AA03F09F
:10DCA0000F0302EB430328460135214633F8202CAD
:10DCB000ADB2FEF7BFFA4D4502DD013CA4B23D46D0
:10DCC000054B9E42D3D109B0BDE8F08337D8030895
:10DCD00077D8030876D8030876F803080020704741
:10DCE000002070470020704700207047034B03EB73
:10DCF0008003D3F8D80E40EA81007047C8AD06080B
:10DD00000F2A70B505460C46164603D91248242141
:10DD1000FFF76CFC0F2C03D90F482521FFF766FC99
:10DD2000072C0E4B4FEA850503DC5D19D5F8D83E6C
:10DD300005E05D19D5F8D83E04F007040433A400CB
:10DD40000F22A24016FA04F4196821EA020242EAFC
:10DD500004041C6070BD00BF53BE0608C8AD0608B1
:10DD6000074B03EB8003D3F8D83E01201AB110FA19
:10DD700001F11961704710FA01F15961704700BF54
:10DD8000C8AD060801228A40054B03EB8003D3F897
:10DD9000D83E9B681A420CBF00200120704700BF8C
:10DDA000C8AD060810B586B00446002102A81022AE
:10DDB0001AF038F800230AE00E498A4205D806A86E
:10DDC00000EB830141F8102C0133032B08DC0A4AD5
:10DDD000944205D254F8042B08498A42ECD2F4E765
:10DDE000059B074800930299039A049BFFF72EFCBA
:10DDF00006B010BDC8AD06080000012000C0040830
:10DE00007EBE0608B0B5054600AF0C4603200021D3
:10DE1000B6F71CFA07482946FFF718FC06482146C2
:10DE2000FFF714FC3846FFF7BDFF0448FFF70EFC70
:10DE3000FEE700BF9CBE0608A6BE0608B4BE0608E4
:10DE400030B50D4691B0744613460090054903A8BD
:10DE50002A46FFF7E5F803A82146FFF7D3FF11B0E4
:10DE600030BD00BFD6BE0608684620F007018D46CB
:10DE700031B50021224C82B00320B6F7E7F92148E2
:10DE8000FFF7E4FBD4F828121F488A694B69FFF7B3
:10DE9000DDFB1E4B1E48D96A9A6A9B6BFFF7D6FBC7
:10DEA000D4F828321B48DA68009219685A689B68CF
:10DEB000FFF7CCFBD4F83852D4F83432D4F82C1213
:10DEC000D4F8302214480095FFF7C0FB1348D4F86B
:10DED0003C12D4F84022FFF7B9FBD4F8283210489E
:10DEE000D4F84412D4F848221B69FFF7AFFBD4F8EA
:10DEF00028021C30FFF756FF0A48FFF7A7FBFEE792
:10DF000074320020F0BE060804BF060800ED00E0F1
:10DF100020BF060844BF060868BF06088CBF060875
:10DF2000A0BF0608B4BE06080A4BEFF30882C3F888
:10DF30002C42C3F82822C3F83052C3F83462C3F825
:10DF40003872C3F83C82C3F84092C3F844A2C3F8C5
:10DF500048B289E774320020704700BF704710B59F
:10DF6000044605F053F9034B20462360024B1C6026
:10DF700010BD00BFD8CD0608F8740020014B036027
:10DF8000704700BFD8CD0608014B1868704700BF26
:10DF9000F874002037B5FEF733F8284C2368B3F146
:10DFA000FF3F08BF20602368C51AB5F57A7F0ED9F8
:10DFB0004FF47A72B5FBF2F502FB05331F490B6093
:10DFC00005F014FD00F52E50836EED188566FEF702
:10DFD000C7F8ADF8060000B9A08005F007FD00F510
:10DFE00042500DF10601543004F02EFD05F0FEFC08
:10DFF00000F5425054300DF1060104F02DFDBDF83E
:10E0000006309BB1A2889A4206D00D4B1B681B7A42
:10E0100013B93220FEF795F805F0E8FC0221BDF8AF
:10E02000062009F0BFFFBDF80630A38005F0DEFC36
:10E030000321002209F0B6FF01203EBD143000206C
:10E04000ACA6002010B5FFF7B7FD05F0CFFC09F036
:10E0500094FC05F0CBFC0121002209F0A3FF15F090
:10E060003DFD15F0F7FC15F045FBBDE81040FFF74E
:10E0700038BC00BF08B5036849421B6849B29847DD
:10E0800008BD0000014B1868704700BFF8D50608AE
:10E090007047012070474368826819688A181A60BF
:10E0A00070474368826819688A1A1A6070470820A6
:10E0B000704783681B78CB1805D4027B9342CCBF92
:10E0C0000020012070470020704783681A780132D1
:10E0D0001A70704783681A78013A1A70704783681B
:10E0E000197070478368187870474368B0F9082042
:10E0F0001B88CB181BB29A4206DCB0F90A00984282
:10E10000B4BF0020012070470020704743681A8880
:10E1100001321A80704743681A88013A1A807047A2
:10E120000220704718207047022070470020704777
:10E130000020704708207047034B1B68586A00286E
:10E14000B8BF033080107047ACA600200020704795
:10E1500019207047034B1B68986A0028B8BF03302A
:10E1600080107047ACA6002000207047192070472F
:10E1700070477047436882681B68CB18934205DB81
:10E18000C0688342CCBF0020012070470020704748
:10E1900043681A6801321A60704743681A68013A86
:10E1A0001A60704702484FF48871FFF71FBA00BF2A
:10E1B000E8CD060808B5034840F20F11FFF716FA3C
:10E1C000002008BDE8CD060802484FF48771FFF72C
:10E1D0000DBA00BFE8CD0608024840F20D11FFF766
:10E1E00005BA00BFE8CD060802484FF48671FFF774
:10E1F000FDB900BFE8CD060808B503484FF48571A6
:10E20000FFF7F4F9022008BDE8CD060839B9042A61
:10E2100005D146F26742934201D108F039BF7047F9
:10E2200039B9042A05D146F26742934201D108F078
:10E230002FBF704739B9042A05D146F2674293428D
:10E2400001D108F025BF70470D4B07B51B6893F847
:10E25000CC21A2B1B3F9D221C8214A43B0F90A10A6
:10E260000539A1EB2221E82909D8B3F8CE21054BC5
:10E27000B0F9040000934FF61E03FEF7F4FF0EBD45
:10E28000ACA60020E2240708C36A70B504460D4618
:10E290001BB90B484221FFF7A9F915F0100F08D060
:10E2A000E168E36A204646F66352BDE8704008F034
:10E2B000FABE20462946BDE8704008F073BF00BF93
:10E2C00002CE060811F0100F70B505460C4605D0B9
:10E2D000C16846F66F52002308F0E5FE2846214645
:10E2E000BDE8704008F05EBF11F0010F70B5044644
:10E2F0000D4615D0C06A012103685B689847012864
:10E300000ED1E06A00210368DB689847204608F0D8
:10E31000BFFE2046E16847F27052002308F0C3FEBA
:10E3200015F0020F15D0E06A012103681B689847B9
:10E3300001280ED1E06A002103689B6898472046B7
:10E3400008F0A6FE2046E16847F27052002308F06C
:10E35000AAFE15F0100F0ED0E06A0368DB6998473B
:10E36000084B1B68984206D02046E16846F6654295
:10E37000E36A08F098FE20462946BDE87040FFF7A2
:10E38000A1BF00BFF8D5060811F0010F70B5044613
:10E390000D460DD0C36A002B0ADD013BC36208F0B5
:10E3A00077FE2046E16846F67512002308F07BFEF2
:10E3B00015F0020F0ED0E36A132B0BDC0133E3627E
:10E3C000204608F065FE2046E16846F675120023F7
:10E3D00008F069FE20462946BDE87040FFF772BF8D
:10E3E00011F0010F70B504460D460DD0C36A012B24
:10E3F0000ADD013BC36208F04BFE2046E16846F6A9
:10E400007512002308F04FFE15F0020F0ED0E36ADC
:10E410001D2B0BDC0133E362204608F039FE204659
:10E42000E16846F67512002308F03DFE20462946B5
:10E43000BDE87040FFF746BF11F0200F70B50546EC
:10E440000C4606D0C06846F278520146002308F018
:10E450002AFE28462146BDE8704008F0A3BE000011
:10E4600011F0010F70B504460D4615D0006A012168
:10E4700003685B68984701280ED1206A0021036871
:10E48000DB689847204608F003FE2046E16847F223
:10E490007052002308F007FE15F0020F15D0206A15
:10E4A000012103681B68984701280ED1206A0021CA
:10E4B00003689B689847204608F0EAFD2046E1681B
:10E4C00047F27052002308F0EEFD15F0100F0ED049
:10E4D000206A0368DB699847084B1B68984206D09E
:10E4E0002046E16846F66542236A08F0DCFD2046D6
:10E4F0002946BDE87040FFF79FBF00BFF8D506086A
:10E5000011F0010F70B504460D4615D0C06A012107
:10E5100003685B68984701280ED1E06A0021036810
:10E52000DB689847204608F0B3FD2046E16846F6D0
:10E530007512002308F0B7FD15F0020F15D0E06A40
:10E54000012103681B68984701280ED1E06A002169
:10E5500003689B689847204608F09AFD2046E168CA
:10E5600046F67512002308F09EFD20462946BDE8B8
:10E57000704008F017BE0000C36A70B504460D462F
:10E580001BB91A482A21FFF731F815F0100F08D0EF
:10E59000E168E36A204646F66352BDE8704008F041
:10E5A00082BDE36A1A79043AD2B2012A17D815F06B
:10E5B000010F08D0DA6812F1FE0F04DB013ADA60CD
:10E5C000204608F065FD15F0020F08D0E36ADA680E
:10E5D000FE2A04DC0132DA60204608F059FD2046AC
:10E5E0002946BDE8704008F0DDBD00BF2DCE06080D
:10E5F000C36A70B504460D461BB91D482221FEF7BB
:10E60000F5FF15F0100F08D0E168E36A204646F6E2
:10E610006352BDE8704008F046BD15F0010F0ED002
:10E62000E36A1A795AB1013A1A71204608F030FDAE
:10E630002046E16846F67512E36A08F034FD15F0ED
:10E64000020F0FD0E36A1A790C2A0BD801321A7123
:10E65000204608F01DFD2046E16846F67512E36A83
:10E6600008F021FD20462946BDE8704008F09ABD1B
:10E670005BCE060830B5028400250122456280F891
:10E680002820BDE8304008F0C7BC00007FB5043347
:10E6900002AC05460E4693E8030084E80300BDF88B
:10E6A0000E30284604339BB2ADF80A300733ADF87C
:10E6B0000E30044942F002022346009608F0ACFCFA
:10E6C0007FBD00BF8ACE06087FB5043302AC054685
:10E6D0000E4693E8030084E80300BDF80E30284698
:10E6E00002339BB2ADF80A300733ADF80E3004495F
:10E6F00042F002022346009608F08EFC7FBD00BF68
:10E7000096CE060830B5049D028401224562BDE81C
:10E71000304008F081BC2DE9FF410A9E0D460021E2
:10E720004162028480F8283004464FF011083046D8
:10E7300008FB03F808F028FC5FFA88F802AF68B11C
:10E74000304608F021FC043003C887E80300BDF818
:10E750000E3002339BB2ADF80A3006E0331D93E869
:10E76000030087E80300BDF80A3098442046294694
:10E77000012202ABADF80E80009608F04DFCBDE81A
:10E78000FF81FFF7C8BF00002DE9F041DDF81880D8
:10E79000044615461F460E4621B908484FF403713A
:10E7A000FEF724FF204629463A460223E662CDF8CA
:10E7B0001880BDE8F041FFF7AEBF00BFE8CD060806
:10E7C000DBB2FFF7A8BFFFF7A6BF10B50A24C462EB
:10E7D000BDE81040FFF79FBF10B50A24C462BDE832
:10E7E0001040FFF798BFFFF796BF000073B50446CF
:10E7F00016460D4619B907480C21FEF7F7FEE562EB
:10E800002046002146F20C3202230096FFF783FFD8
:10E810007CBD00BF2DCE060810B50524C462BDE83E
:10E820001040FFF778BF13B503469C685B682478F7
:10E83000088853F82430B1F9021000934FF6FF73A3
:10E84000002A14BF1A4600224FF61E03FEF78DFE63
:10E850001CBD00002DE9F3412B4DB0F906402B689B
:10E86000B0F90460B3F85020284B2146009330469D
:10E870000023FEF77AFE2B68254F93F84E2093F87D
:10E880004F30214602EBC30357F823308019009321
:10E890004FF6FF720023FEF768FE2B6806F164084E
:10E8A000B3F864201B4B2146009340460023FEF73B
:10E8B0005CFE2B68214693F8622093F86330404455
:10E8C00002EBC30357F823304FF6FF720093002387
:10E8D000FEF74BFE104BC83600932146002330460E
:10E8E0004BF29652FEF741FE2B68801993F89C205C
:10E8F0000A4B214653F822304FF6FF720093002353
:10E90000FEF733FEBDE8FC81ACA60020930F07089C
:10E91000FCD6060879100708A2CE060874D70608A8
:10E9200013B504300021FEF76AFC314B302100930F
:10E930000420002348F21042FEF717FE2D4B402121
:10E9400000930420002348F21042FEF70EFE2A4BEB
:10E9500050210093294C0023042048F21042FEF776
:10E9600004FE60210023082044F208220094FEF7F0
:10E97000FCFD234B702100930420002348F2104239
:10E98000FEF7F3FD1F4B802100930420002348F283
:10E990001042FEF7EAFD1C4B90210093042048F240
:10E9A00010420023FEF7E1FDB021082044F20822C6
:10E9B00000230094FEF7D9FD144BC02100930420DE
:10E9C000002348F21042FEF7D0FD114BD0210093F6
:10E9D0000420002348F21042FEF7C7FD0D4B04202F
:10E9E0000093E02148F210420023FEF7BEFD1CBD5B
:10E9F000A6CE0608B1CE0608C2CE0608CFCE0608BF
:10EA0000F8CE06080FCF06082BCF06083CCF060825
:10EA10004FCF060867CF0608F7B50E88154B083E9E
:10EA20004FF6FF75002A08BF0025B6B20C46074610
:10EA3000B1F902102A46009330464FF61E03FEF746
:10EA400012FC7B683618B6B2B4F902100093304657
:10EA50002B464FF61E02FEF788FD074B3018009339
:10EA6000B4F902102A464FF61E0380B2FEF7FBFBF4
:10EA7000FEBD00BF47250708B925070873B5044642
:10EA800008F0F6FAA688144B083E4FF6FF750028EA
:10EA900008BF0025B6B2B4F9061000932A463046E6
:10EAA0004FF61E03FEF7DFFBE3693618B6B2B4F982
:10EAB0000610009330462B464FF61E02FEF755FD1A
:10EAC000064B30180093B4F906102A464FF61E0381
:10EAD00080B2FEF7C8FB7CBD47250708B9250708AB
:10EAE00013B504464FF6FF710430FEF788FBB4F906
:10EAF0000400B4F90A10054B0830009314390022C1
:10EB00004FF61E03FEF731FD1CBD00BF74CF060893
:10EB100008B583681A78436853F8220019F0D2FBCD
:10EB2000C3004FF6F87003EA000008BD7FB54368E4
:10EB300004460D46164623B912484FF42F71FEF7CE
:10EB400055FD63681A68A36892FBF3F20A2392FBEF
:10EB5000F3F103FB11220023ADF80C30303204AB8B
:10EB600003F8042D4FF6FF720093B5F90000B5F9D4
:10EB70000210002E08BF00224FF61E03FEF716FDFE
:10EB80007FBD00BFE8CD060870B50E4615461C4691
:10EB900008F0F3F92A46014623463046BDE87040A6
:10EBA00008F081BA11F0130F70B505460C4607D076
:10EBB00008F0E3F9022201462346284608F073FADA
:10EBC00028462146BDE8704008F0ECBA10B50C4666
:10EBD00008F0D3F9036821465B68984710BD11F02F
:10EBE000130F10B50C4606D008F0C7F9036821468C
:10EBF0005B68984710BDBDE8104008F0D3BA00002C
:10EC000011F0030F10B507D0FFF77AFC044B18681A
:10EC1000BDE8104006F0EEBEBDE81040FFF770BC46
:10EC2000ACA6002011F0030F10B507D0FFF768FC69
:10EC3000044B1868BDE8104006F0DCBEBDE810408B
:10EC4000FFF75EBCACA6002011F0030F10B507D093
:10EC5000FFF756FC044B1868BDE8104006F0CABE2A
:10EC6000BDE81040FFF74CBCACA6002008B54368D7
:10EC7000B3F9000007F0A2FF19F024FBC3004FF620
:10EC8000F87003EA000008BD4368F7B54FF6FF7659
:10EC900004460D46002A08BF00261BB913489721D9
:10ECA000FEF7A4FC6368B5F900701868A368984281
:10ECB00002DBE36898420ADD0D4BB5F902100093C0
:10ECC000384632464FF61E03FEF74FFC0CE000B20A
:10ECD000B5F9024007F072FF2146009032463846EF
:10ECE0004FF61E03FEF762FCFEBD00BF81CF060893
:10ECF0009CCF060808B54368B3F9000007F05EFF33
:10ED000019F0E0FAC3004FF6F87003EA000008BDFE
:10ED10004368F7B54FF6FF7604460D46002A08BF54
:10ED200000261BB914485D21FEF760FC6268B4F947
:10ED30000830B2F90000B5F90070834203DCB4F981
:10ED40000A3083420ADA0D4BB5F9021000933846B7
:10ED500032464FF61E03FEF708FC0BE0B5F9024001
:10ED600007F02CFF21460090324638464FF61E032E
:10ED7000FEF71CFCFEBD00BF81CF06089CCF060835
:10ED80002DE9F0471F4647F270539A4204460D465C
:10ED900016463FD100F1380399423BD1436A93F8BC
:10EDA0000480A8F104095FFA89F9B9F1010F8CBF59
:10EDB0004FF000094FF00109B9F1000F06D0A8F19A
:10EDC0000503D3F1000848EB030801E04FF0010808
:10EDD00004F1A00A504608F05AFA814506D0494687
:10EDE000504608F068F94FF0010901E04FF00009C2
:10EDF00004F16C0A504608F04AFA804504D05046A7
:10EE0000414608F058F902E0B9F1000F02D020465F
:10EE100008F03EF92046294632463B46BDE8F04719
:10EE2000FFF7B2BEF7B543680E881C88083E134B47
:10EE3000B6B20D462246B1F90210304600934FF6A5
:10EE40001E03FEF710FA36182046B5F9027007F0D7
:10EE5000F9FEB6B200903946234630464FF61E0200
:10EE6000FEF7A4FB064B30180093B5F902102246BA
:10EE70004FF61E0380B2FEF7F6F9FEBD47250708E0
:10EE8000B925070844F644418A4201D108F05ABB2B
:10EE900044F645418A4202D1012280F82020704781
:10EEA00044F644439A4201D108F04CBB44F6454332
:10EEB0009A4202D1642108F047BA704770B5043015
:10EEC00092B00021FEF79BF901252824681EFDF76A
:10EED00011FC0646D0B1284919F0A8F8034648B9F4
:10EEE000264A04200092214648F210420195FEF77E
:10EEF0005EFB16E0224B04200093214648F21042AC
:10EF0000002301950296FEF752FB0AE01D4B0420F8
:10EF100000932146334648F210420195FEF747FB25
:10EF2000194E342205A8002118F07CFF05AB06F12C
:10EF30003002306871680836964203C3F9D13188CF
:10EF4000B27805AE19809A7030463B2118F0E8FF80
:10EF500008B1002303700420002304F110014BF2D8
:10EF6000965200960135FEF721FBB82C01D03034C3
:10EF7000ACE712B070BD00BF9DBD0608ACCF06085F
:10EF8000CDCF0608F2CF06089ECF060811F0010F7C
:10EF900070B504460D4616D0006A012103685B680F
:10EFA000984780B1206A00210368DB6898472046B3
:10EFB00007F0E3FF08F06CF8E06847F27052C168B0
:10EFC000002308F070F815F0020F16D0206A012116
:10EFD00003681B68984780B1206A002103689B681A
:10EFE0009847204607F0C9FF08F052F8E06847F25A
:10EFF0007052C168002308F056F815F00C0F13D0BA
:10F00000204607F0BCFF294606462046FFF714FAC3
:10F01000204607F0B4FF86420CD0204607F0ADFF33
:10F02000BDE8704008F034B820462946BDE870407D
:10F03000FFF702BA70BD000011F0100F70B5044662
:10F0400017D007F09CFF18B90A483D21FEF7CEFA09
:10F05000204607F092FF0546204607F090FF034642
:10F06000DB692046294646F26452BDE8704008F04C
:10F070001AB870BD13D0060801804280704710B5E1
:10F080008380BDF8083001804280C38010BD00003D
:10F090007FB5DE2305460E46144600930021162256
:10F0A000D33B02A8FFF7EBFF2846044944F00202D5
:10F0B00002AB009607F0B0FF7FBD00BF36D0060858
:10F0C0007FB5DE2305460E46144600930021162226
:10F0D000D33B02A8FFF7D3FF2846044944F00202BD
:10F0E00002AB009607F098FF7FBD00BF4AD006082C
:10F0F0007FB5152305460E46144600930C211022B9
:10F1000002A84FF49C73FFF7BAFF2846034944F066
:10F11000020202AB009607F07FFF7FBD62D00608B7
:10F120007FB5F02305460E461446009300211022B9
:10F13000A03302A8FFF7A3FF2846044944F00202C7
:10F1400002AB009607F068FF7FBD00BF75D00608D0
:10F150007FB5F02305460E46144600930021102289
:10F16000A03302A8FFF78BFF2846044944F00202AF
:10F1700002AB009607F050FF7FBD00BF81D00608AC
:10F180007FB5F02305460E46144600930021102259
:10F19000A03302A8FFF773FF2846044944F0020297
:10F1A00002AB009607F038FF7FBD00BF91D0060884
:10F1B0007FB5F02305460E46144600930021102229
:10F1C000A03302A8FFF75BFF2846044944F002027F
:10F1D00002AB009607F020FF7FBD00BFA1D006085C
:10F1E0007FB5F02305460E461446009300211022F9
:10F1F000A03302A8FFF743FF2846044944F0120257
:10F2000002AB009607F008FF7FBD00BFB2D0060832
:10F210007FB5F02305460E461446009300211022C8
:10F22000A03302A8FFF72BFF28460349224602AB72
:10F23000009607F0F1FE7FBDC2D00608B0F90420A9
:10F24000B0F90030D0184010704707B5B0F9003061
:10F25000B0F90410B0F90620C918B0F9023049100D
:10F26000D218521001A8FFF707FF019B00209AB2A5
:10F2700062F30F001B0C63F31F400EBD10B5048832
:10F28000091901804188521842808288D31A8380EC
:10F29000C288029BD31AC38010BD10B50488611ABE
:10F2A000018041888A1A428082889B188380029A52
:10F2B000C388D318C38010BDB0F90420B0F9003062
:10F2C000D01A7047F0B587B004AC051D064695E826
:10F2D000030084E80300012100220B46204600922F
:10F2E000FFF7DBFF204648F21041FDF788FF94E866
:10F2F0000300184B02AF1B6887E803002846B3F8E9
:10F300009E40FFF7D9FFBDF80A3004FB00F201333D
:10F31000ADF80A3004F59674BDF80E304443013B55
:10F32000ADF80E30B388384603EB223203EB2434B9
:10F33000BDF81430ADF80C40ADF8082024B21AB274
:10F340009442C8BFADF80C300021FDF758FF07B05C
:10F35000F0BD00BFACA6002073B5051D002104461A
:10F360002846FDF74CFF0F4B1B68B3F8AE60B3F8AF
:10F370009E30F61A36B2002E12DB2846FFF79CFFAD
:10F3800086420DDAB4F90400074B04380093B4F94F
:10F390000610801946F20C324FF61E03FDF763FF8C
:10F3A0007CBD00BFACA600204E24070830B5051D6B
:10F3B00085B0044600212846FDF721FF2E4B802111
:10F3C00000930420002348F21042FEF7CEF82B4BA6
:10F3D00080210093A02000234BF29652FEF7C5F83F
:10F3E000274BA02100930420002348F21042FEF78F
:10F3F000BCF8244BA0200093014600234BF2965208
:10F40000FEF7B3F8204BB02100930420002348F20C
:10F410001042FEF7AAF81D4BB0210093A020002354
:10F420004BF29652FEF7A1F8194BC021009304202D
:10F43000002348F21042FEF798F8164B4BF2965212
:10F4400000930423019301330293033B0393A02011
:10F45000C021023BFEF7ABF82846FFF72DFFB4F9B9
:10F460000610A0F5807000EBD0704010183105B088
:10F47000BDE83040FEF7DEBBCCD00608DED0060883
:10F48000E2D00608ECD00608FDD006080DD106082B
:10F4900022D1060834D10608F7B5061D002105461D
:10F4A0003046FDF7ACFE514B802148F210420093EC
:10F4B00004200023FEF759F8FEF7A8FB8021002363
:10F4C00000904BF29652A020FEF74FF8484B902147
:10F4D00048F21042009304200023FEF746F8FEF79E
:10F4E00099FB9021002300904BF29652A020FEF74A
:10F4F0003CF8404BA02148F2104200930420002326
:10F50000FEF733F8FEF78AFB0090A02000230146A7
:10F510004BF29652FEF729F8374BB02148F21042D1
:10F52000009304200023FEF720F8FEF76BFBB021C8
:10F5300000234BF296520090A020FEF716F8FEF73B
:10F5400073FB2E4B0446009304200023C02148F295
:10F550001042FEF70AF82A4B2A4F9C4204D02A4B4D
:10F560009C4203D064B114E0284B00E0284B009388
:10F57000A020C0214BF296520023FDF7F6FF11E0C8
:10F58000244BA0200093C0214BF296522346FDF756
:10F59000ECFFA020C0214BF296520023009701946B
:10F5A000FEF705F81C4BD021009348F210420023CF
:10F5B0000420FDF7DAFFFEF735FBD02101904BF276
:10F5C00096520023A0200097FDF7F1FF3046FFF789
:10F5D00073FEB5F90610A0F5807000EBD0704010F6
:10F5E000183103B0BDE8F040FEF724BB41D1060856
:10F5F00053D1060863D1060871D106087ED10608EA
:10F6000076676100A2D10608279304028ED106080E
:10F6100092D106089AD10608A7D10608B0F90620AB
:10F62000B0F90230D01A70470388CB180380838862
:10F63000C91843888180D3184380C388D218C280F8
:10F6400070470023038043808380C3807047B0F9F4
:10F650000420B0F900309A42D4BF00200120704746
:10F660002DE9F04F00F126068BB004463046FFF737
:10F67000EEFF0546002847D108AF04F1040898E8DA
:10F68000030087E8030001210A460B463846009133
:10F69000FFF703FE38464BF29651FDF724FD29464D
:10F6A0004046FDF7ACFD48F21042ADF81650ADF8FB
:10F6B0001850ADF81A50ADF81C50ADF8142019359B
:10F6C000B4F90400B4F90A3005AA281800920522FA
:10F6D0000192043B421CB4F906101935FCF778FD81
:10F6E000FA2DEDD1E13DB4F9061005AB6918009390
:10F6F00005230193B4F904004B1CB4F90820193513
:10F70000FCF766FDC82DEED1236A002B00F0A78020
:10F71000251D2846FFF7D0FD80462846FFF77EFFCF
:10F72000B4F90AA0323803902046AAF1190A07F06A
:10F730009FFC60B1216BA38C01FB08F198FBF3F2F5
:10F7400002EBD27291FBF3F303EB620301E06FF083
:10F75000130330460293FFF77AFF18B9E084A4F848
:10F760002A802BE0B4F90420B4F9263000259A420F
:10F77000A8BF1346E384B4F90820B4F92A30012164
:10F780009A42B8BF134663852A460B463046009519
:10F79000FFF774FD30462946FDF731FD0121304663
:10F7A0002A460B460095FFF778FDB4F90410B4F92A
:10F7B0000620304649425242FFF736FF4FF000091B
:10F7C000E58CCB4644E0A28C236A6A4392FBF8F2B4
:10F7D00033F81270B7F5805F03D322485D21FDF73F
:10F7E00005FF039AB4F92630574344BF07F57E67F7
:10F7F0001F373F13B4F90420BFB29D4208BFBB4678
:10F80000AA184FF6FF730093501EC7EB0A03CBEB09
:10F810000A01FDF757FF029B9D4208BFB94603331B
:10F820009D4212D1B4F904000F4B626B0638AAF165
:10F83000040100934019C9EB0101082A14BF1622E4
:10F840001F224FF61E03FDF70EFD0135ADB2BB467C
:10F85000B4F92A309D42B6DB3046FFF7F2FE0BB01A
:10F86000BDE8F08FB6D10608E131070813B50446AC
:10F87000B4F90220B0F90000B4F906300091114645
:10F8800000F10C02FDF7B0FDB4F90000B4F902106C
:10F89000B4F90420B4F9063008304BF296540094C1
:10F8A000FDF7EFFB1CBD37B50446B4F90250B0F9C3
:10F8B0000000B4F90420B4F906300238009129465A
:10F8C000FDF792FDB4F90000B4F90210B4F9042078
:10F8D000B4F9063006304FF6FF740131013A013BAE
:10F8E0000094FDF781FD3EBD07B50346B0F9000069
:10F8F0000022B3F90210B3F90630009200F10802B9
:10F90000FDF7BFFB0EBD37B50446B0F90000B4F9F2
:10F910000210B4F90630002500F108020095FDF749
:10F92000B0FBB4F90420B4F90210B4F90630101F8A
:10F930000095FDF7A6FB3EBD436A37B504460BB103
:10F940001B880384204607F093FB231D18B118463B
:10F95000FFF7D9FF02E01846FFF7C6FFA38820464D
:10F960000433A38007F084FB0546218C201D5DB184
:10F97000FFF799FFE369B3B1B4F90400B4F90610D5
:10F9800000930C3000220AE0FFF770FFE36953B1E7
:10F99000B4F90400B4F9061000930C302A464FF66F
:10F9A0001E03FDF7E2FDA388043BA3803EBD0000DB
:10F9B000C36A2DE9F0431F795B79A7F10102574231
:10F9C00047EB020748F21048002F18BF4FF000081D
:10F9D000012B8BB0044608D002D3022B0FD109E0D3
:10F9E0003A4B1B68B3F8503008E0384B1B68B3F84B
:10F9F000643003E0354B1B68B3F8CE3103862046F4
:10FA0000FFF79AFFE36AB4F904909A79304BB4F99E
:10FA1000065053F8223009F10E060093304629466D
:10FA200042464FF61E03FDF7A0FD002F4BD0E36AC0
:10FA3000284A99799F6852F82140384600211035AC
:10FA400018F0FAF868B1244B304600934246294634
:10FA50004FF61E03FDF707FC07F100428619174613
:10FA600001E009F11406384617F05CFB02460B462C
:10FA700002A81A49FDF7D4FA05E00AAA02EB090325
:10FA8000002203F8212C02AF384618F01BFC8146F7
:10FA9000204618F017FC48440728EED8304629467F
:10FAA00042464FF61E030097FDF780FD5CB12378B8
:10FAB0004BB104363018294644F208224FF61E0393
:10FAC0000094FDF752FD0BB0BDE8F083ACA600201A
:10FAD00014D9060878D906088B310708E2D1060840
:10FAE000F0B5C669002585B00446C561FFF724FF5F
:10FAF000E661231D02AE93E803002A4686E8030070
:10FB00002B46304610210095FFF7B8FBE3692A46E3
:10FB1000BDF90A100093BDF908004FF61E03FDF76A
:10FB200024FDBDF80A3020461033ADF80A3007F046
:10FB30009FFA0246002837D0BDF808701E4B083FD8
:10FB4000BFB2BDF90A102A46009338B24FF61E0321
:10FB5000ADF80870FDF787FB3818ADF80800E06ACB
:10FB600003685B699847BDF90A100746BDF90800AC
:10FB700001F10E033A180095FDF783FAE06A314669
:10FB8000036801221B699847BDF80830BDF90A10C7
:10FB9000FF180A4B38B200932A464FF61E03ADF801
:10FBA0000870FDF760FB04E0E06A314603681B69FA
:10FBB000984705B0F0BD00BF47250708B9250708DD
:10FBC000F0B5044685B0FFF7B7FEB4F90450B4F9B8
:10FBD0000670E369103500932846394600224FF637
:10FBE0001E03FDF7C2FC204607F1100607F040FA9D
:10FBF00000282ED0234B31460022009328464FF692
:10FC00001E03FDF730FB4519E06A1E3703685B6988
:10FC1000984732464319294602A80097FFF72FFA62
:10FC2000002102A8FDF7EBFAE76A20463B681D6950
:10FC300007F01EFA02A902463846A847124BBDF942
:10FC40000C000093314600224FF61E03FDF70BFB1C
:10FC500015E0E06A1E3703685B6998472946431937
:10FC6000324602A80097FFF70AFAE66A2046336890
:10FC70001D6907F0FDF902A902463046A84705B004
:10FC8000F0BD00BF47250708B9250708FFF754BE98
:10FC900013B50446FFF750FE084BB4F90400009377
:10FCA000E36AB4F9061003EB830301931C301031AF
:10FCB00000224FF61E03FDF77AFC1CBD3007070833
:10FCC00013B50446FFF738FE084BB4F9040000935F
:10FCD000E36AB4F9061003EB830301931C3010317F
:10FCE00000224FF61E03FDF762FC1CBD300707081B
:10FCF00013B50446FFF720FE13F044FDB4F90430B9
:10FD0000B4F90610054A0190009203F11C0010316D
:10FD100000224FF61E03FDF74AFC1CBD3007070802
:10FD200073B50546FFF708FEEB6AB5F90440B5F96F
:10FD300006601B690E340022009331464FF61E0305
:10FD40002046FDF712FCEB6A31461A79114B001977
:10FD500053F82230002200934FF61E03FDF705FCF6
:10FD6000EB6A06F110011A79052A01D10A4A06E068
:10FD7000042A03D0094A00929B6802E0084A0092D4
:10FD8000DB680193204600224FF61E03FDF70FFCAF
:10FD90007CBD00BF20DA0608E6D106083007070858
:10FDA000EDD10608C36AF7B51D79044648F2104341
:10FDB000002D0CBF1D460025FFF7BEFDB4F90470F1
:10FDC000B4F906600C4B0E37009331462A4638468C
:10FDD0004FF61E03FDF7C9FBE36A38461A79074B55
:10FDE00006F1100153F822302A4600934FF61E0305
:10FDF000FDF7BBFBFEBD00BFF1D10608E8D9060840
:10FE00007FB50646FFF798FD0E4BF06A009317F09A
:10FE100021FD0D4917F026FE0C4917F067FC17F07D
:10FE200081F9B6F90450B6F906401C351034CDE915
:10FE300002010022284621464FF61E03FDF7B7FBBC
:10FE40007FBD00BFFBD10608000020410AD7233C3C
:10FE500073B5B0F90420B0F906300E46B0F90210BF
:10FE600004464FF4E045101F04310432043300957A
:10FE7000FDF7BAFAB4F90630B4F90000B4F9042079
:10FE8000191F0430043204330095FDF7ADFAB4F9BC
:10FE90000000B4F90210B4F9063000F10C0200962B
:10FEA000FDF7A2FAB4F90000B4F90420B4F9021085
:10FEB000B4F906304BF296550830043A0095FDF738
:10FEC000E0F8B4F90420B4F90210B4F90630A2F154
:10FED00008000095FDF788FA7CBD73B5B0F90420E1
:10FEE000B0F906300E46B0F9021004464FF4E04572
:10FEF000101F0431043204330095FDF775FAB4F98C
:10FF00000630B4F90000B4F90420191F043004329B
:10FF100004330095FDF768FAB4F90000B4F9021053
:10FF2000B4F90420B4F906300096FDF75DFA7CBD03
:10FF300030B5024685B00D460068516802AB022418
:10FF400003C302A80021FDF78BFA2246234602A82C
:10FF500021460094FFF792F902A82946FDF780FA9E
:10FF600002A821460E2223460094FFF787F902A833
:10FF70004BF29651FDF774FA05B030BD73B50446E7
:10FF8000051D218C2846FFF7D3FF2846FFF756F9B9
:10FF9000E5690646284618F095F9B4F90610C0B28E
:10FFA0008000301A023100224FF61E030095FDF743
:10FFB000DCFA7CBDF0B589B0031D054604AC93E8BE
:10FFC000030084E803001846298CFFF7B1FF2046A0
:10FFD000FFF734F9EE690746304618F073F9BDF9BA
:10FFE0001210C0B2800002310022381A4FF61E03F0
:10FFF0000096FDF7BAFA122104230A460093204620
:020000040805ED
:100000000B46FFF73BF9686A18F05CF90746204693
:10001000FFF71BF9ADF80800C0F30F40ADF80A0078
:10002000029E20460796FFF710F9ADF80800C0F3CE
:100030000F40ADF80A0002996B6AFF0036B2A6EBDA
:1000400067060691091400933046073900224FF6DF
:100050001E03FDF78AFA09B0F0BDF0B585B0031DA7
:10006000044602AD93E8030085E803001846218C9E
:10007000FFF75EFF2846FFF7E1F8E66907463046DE
:1000800018F020F9BDF90A10C0B280000231002238
:10009000381A4FF61E030096FDF767FA1221042363
:1000A000009328460A460B46FFF7E8F8636ABDF955
:1000B0000800BDF90A1000930430043100224FF605
:1000C0001E03FDF752FA05B0F0BD4BF29651FDF755
:1000D00096B82DE9F041012104460026FDF79EF86F
:1000E000D02514E0EB10DA024FEAA50842EA4818DE
:1000F000204648EA0308FFF7DFF8074602E04046DB
:10010000FDF796F8013FFAD20D3DEDB201362046DB
:10011000FFF784FA8642E5DBBDE8F041FDF7A2B8BF
:1001200010B5044606F0A4FF231D20B91846BDE80B
:100130001040FFF7CABF1846BDE81040FFF7C9BF1F
:100140002DE9FF47044606F093FF4FF6FF750028A0
:1001500008BF00252046FFF7E3FFE369B4F9040078
:100160002A46B4F90610009304304FF61E03FDF73B
:10017000FCF9206A01210368B4F904805B689847A0
:100180008146206A0121036808F178071B689847B7
:10019000B9F1010F064607D1244BB4F906100093BC
:1001A00008F170002A460AE0B9F1000F0BD11F4B8D
:1001B000B4F90610009308F1700048F210424FF6AF
:1001C0001E03FDF750F8D4F820A0231D93E8030088
:1001D0000DF10809DAF8003089E803002046D3F869
:1001E0001080ADF80870ADF80C7006F041FF49467C
:1001F00002465046C047206A03685B699847012E53
:10020000384405D10A4BB4F9061000932A4606E09B
:100210004EB9074BB4F90610009348F210424FF65E
:100220001E03FDF720F8BDE8FF8700BFD8210708AF
:100230004A22070837B5054606F01AFF4FF6FF7445
:10024000002808BF00242846FFF76AFFEB69B5F9CC
:1002500004000093B5F90610043022464FF61E0341
:10026000FDF783F93EBD13B50446FFF759FFE36977
:10027000B4F904000093B4F90610043000224FF6DC
:100280001E03FDF772F91CBDF0B585B0044606F0FB
:10029000EFFE4FF6FF75002808BF0025204606F048
:1002A000E7FE90B102AB221D92E8030083E8030051
:1002B000BDF808201846083AADF80820BDF80C2013
:1002C0000832ADF80C20FFF704FF204606F0D0FE00
:1002D00058B1174BB4F904000093B4F9061007386D
:1002E0002A464FF61E03FCF7BEFF276A20463B68EE
:1002F0001E6906F0BDFE211D02463846B047206A41
:10030000A78803685B6998470646204606F0B0FE5A
:1003100058B1084B3FB2781C0093B4F9061080190D
:100320002A464FF61E03FCF79EFF05B0F0BD00BF46
:10033000D82107084A22070838B54FF61F0399420B
:1003400004460A4607D0056961698068E368281891
:10035000C918FBF76FFF6269236912F0010F07D01C
:10036000591E002921610BDA01322361626138BD17
:10037000A069591C8142216102DB01322361626163
:1003800038BD10B500231A46416811F8014B416091
:1003900004F07F019140073214F0800F43EA01031B
:1003A000F2D1184610BD38B54FF0FF3303600B781B
:1003B0000446472B0D461CD18B1C4360FFF7E1FF21
:1003C000A0612046FFF7DDFFE0616B78422B10D182
:1003D000234604F1200061680A4612F8015B62605E
:1003E00049780132626041EA05221A84023383426D
:1003F000F1D138BD03460068B0F1FF3F06D15A681D
:1004000012F8010B18605A60001170474FF0FF326C
:1004100000F00F001A60704770B5002406462546AC
:100420003046FFF7E7FFC0B200F00703AB400335EB
:1004300010F0080F44EA0304F2D1204670BD00001A
:100440002DE9F8434FF0FF3303600133036143614B
:100450008769C36904468160C260D0F804805F4345
:1004600001262FE0AEB12046FFF7D6FF451C2046FF
:10047000FFF7C0FF0026814607E009F11003204680
:1004800034F81310FFF758FF0136AE42F5DB0026B3
:1004900012E02046FFF7AEFF451C0AE02046FFF7BA
:1004A000A9FF00F1100334F813102046FFF744FFB2
:1004B0000136AE42F2DB01267F1B03D504484821FA
:1004C000FDF794F8002FCDDCC4F80480BDE8F88374
:1004D00001D20608074A08481168084B30B504687D
:1004E000074DCB1805FB043301310360580411603C
:1004F000400C30BD00A600201C300020F3902400EA
:1005000021F17D004162704773B5044616460D46E1
:1005100019B90C480D21FDF769F80B4B00211B6838
:100520002046B3F850300A462386E562022300963F
:10053000FEF7F1F8204604F1300102B0BDE870404A
:10054000FFF7E0BF02CE0608ACA6002073B5054653
:1005500016460C4619B90A480C21FDF747F8EC621B
:10056000284634F8062F002102230096FEF7D3F820
:100570002846214602B0BDE87040FFF7C3BF00BF68
:100580005BCE06082DE9F0410C461546984600263C
:10059000A75B1FB94FF61F03A3530DE0FA082946C6
:1005A00002F0FC02404606F0A5FCFA0AA053002126
:1005B000D20006F09FFCA0530236202EE8D1BDE801
:1005C000F08110B592B0044606F052FD231D218C37
:1005D00070B11846FFF781FC616A21B302A8FFF7EA
:1005E000E2FE20460AA94EF210424FF6FF730DE0DC
:1005F0001846FFF72DFC616AA9B102A8FFF7D3FEE8
:1006000020460AA94EF21C724BF29653FFF7BAFF2E
:10061000089BB4F90810B4F90A20C91A099B02A86A
:10062000D21AFFF70DFFE369B4F904000093B4F99F
:1006300006100C3000224FF61E03FCF796FF12B096
:1006400010BD4160826003737047000008B50379F4
:10065000012B09D002D3022B0FD10AE0836818883E
:1006600000F01F00400808BD83681888C0F3C3105D
:1006700008BD83681888000B08BD03484FF48271D9
:10068000FCF7B4FF002008BD81CF060830B54FF657
:10069000FF7585B00C46002A08BF0025FFF7D6FF7E
:1006A00006F0C0FA00238DF80D3003AB8DF80C0076
:1006B0000093B4F90000B4F902102A464FF61E0365
:1006C000FCF774FF05B030BD002908B50CDDFFF75D
:1006D000BDFF0E288CBF0020012008BDFFF7B6FF2C
:1006E000003818BF012008BDF8DB002008BD00005D
:1006F0000379012B12D002D3022B2CD11DE082688A
:10070000138823F01F031B041B0C0F2902D0490080
:10071000C9B200E01F2141EA03031AE0826813888E
:1007200023F4FC631B041B0C0F2902D08900C9B2FF
:1007300000E03F2143EA41130BE0826813885B0528
:100740005B0D0F2902D04900C9B200E01F2143EA26
:10075000C1231380704702484FF48E71FCF746BFE7
:1007600081CF060810B50446FFF770FF30B1411E77
:10077000C9B22046BDE81040FFF7BABF10BD10B5A2
:100780000446FFF763FF0E2806D8411CC9B2204675
:10079000BDE81040FFF7ACBF10BDC86840427047CD
:1007A00010B5044606F0ACFD014B2046236010BD99
:1007B000D8C00608014B0360704700BF20C106087F
:1007C00010B50446FFF7F6FF014B2046236010BD2D
:1007D000F8C0060810B50446FFF7ECFF014B2046B1
:1007E000236010BDE8C4060810B5044606F088FD75
:1007F000014B2046236010BD68C1060810B50446B1
:10080000FFF7F2FF014B2046236010BD48C10608E8
:1008100010B50446FFF7E8FF014B2046236010BDEA
:1008200010C7060810B5044606F08CFE2046BDE849
:10083000104006F051BEFFF7F5BFFFF7F3BF000011
:1008400038B5184B1C6894F8BC30052B11D1D4F87E
:10085000C400013016F0FEFF0146134817F002F9FC
:100860000546D4F8C000013016F0F4FF01462846D2
:1008700012E0D4F8D850002D11DDD4F8C4000130B6
:1008800016F0E8FF0146094817F0ECF80446284640
:1008900016F0E0FF0146204617F0E4F838BD0020CE
:1008A00038BD00BFACA600204054894C00BA5B4A5A
:1008B00037B50446FFF740F82046FFF7C1FF17F0B1
:1008C000E3F916F0C7FF0821B4F90450B4F9064063
:1008D00006F0FEF91C35103400902146284600220F
:1008E0004FF61E03FCF762FE3EBD0000F8B5284B34
:1008F0000D461C6894F8BC60D4F8D870052E1AD147
:100900000846244917F0A2F968B92846224917F089
:100910009DF950B92846214917F098F9002814BFCD
:100920001220012002E0F02000E0B420431EC4F8B1
:10093000C030012700E0142016F08CFF294616F085
:10094000DDFF0546384616F085FF0146284616F0BD
:10095000D5FF0146124817F085F817F095F90138D0
:100960000128ACBF03460123052E03D10828ACBFE4
:1009700003460823D4F8C450D4F8D4005D1B18BF34
:100980000125C4F8C43012F00BFF2846F8BD00BFA3
:10099000ACA60020000020410000FA4400409C4624
:1009A0004054894C2DE9F04711F0010904460D46E9
:1009B00003D111F0020F00F0DA802046FFF740FF6C
:1009C00000210646012717F04BF900B9002717F060
:1009D000FF0F03D168482321FCF708FE3046674922
:1009E00017F034F9E8B93046654917F02FF9D8B94E
:1009F0003046644917F02AF9C0B93046624917F009
:100A000025F9A8B93046614917F020F990B9304668
:100A10005F4917F01BF978B930465E4917F016F9AF
:100A200060B94FF07E570AE05B4F08E0534F06E095
:100A3000534F04E0534F02E0534F00E0534FB9F1DE
:100A4000000F11D03046394617F014F928B130465E
:100A5000394616F049FE804600E0B0464046002187
:100A600017F0F4F810B903E0B04601E04FF07E58FB
:100A700015F0020F10D04046484917F0DDF820B1BC
:100A80004046394616F032FE80464046002117F0B7
:100A9000DDF808B14FF07E583946404616F0E2FFC7
:100AA00017F0F2F816F0D6FE394616F027FF4FF091
:100AB0007E51074617F0C0F808B14FF07E57384610
:100AC000314617F0AFF800284FD139462046FFF7DE
:100AD0000DFF80462046FFF7B3FE3146824638467A
:100AE00017F0C8F838B15046314617F0AFF8002873
:100AF00018BF4FF000083846314617F09DF820B176
:100B00005046314617F0ACF810B9B8F1000F22D1B9
:100B1000234BB9F1000F07D01B68D3F8C410B1F50F
:100B2000803F18DA013105E01B68D3F8C4100129B1
:100B300011DD013993F8BC20C3F8C410052A89B22D
:100B400006D1B3F8C000B3F8C820FCF755FF02E0A7
:100B50000846FCF791FF204606F09AFA2046E16825
:100B600046F67512002306F09EFA20462946BDE897
:100B7000F047FDF7A7BB00BF19D206080000C84226
:100B800000007A4400401C460050C34700247449CA
:100B90008096184B20BCBE4C000020418096984B9C
:100BA000ACA600200023036043608360704710B54B
:100BB0000446FFF7F7FF204610BD836830B545684F
:100BC00003B985608368DC225343B83A02FB0533DE
:100BD000002BB8BFFF331A128260046805B9446065
:100BE0004368DC256B43B83D05FB0433002BB8BFDD
:100BF000FF331B1243600CB90B0203600368DC2453
:100C000063434FF4105404FB01310029B8BFFF3196
:100C100009120160101EB8BFFF30001230BD000085
:100C2000F0B585B0FBF798FF0746FBF7B1FF6B4CBB
:100C30000646236813F0010F04D16948FFF7B7FF98
:100C40000123236039466648FFF7B7FF654D044628
:100C50007021F0204BF29652002300950197FCF78B
:100C6000A6FC002C40D04BF2965200238021F020AD
:100C700001940095FCF79BFCA4F50660193816F06A
:100C8000E9FD594916F03AFE584916F0EBFE0146C7
:100C9000574816F029FD574B57490093044616F064
:100CA00025FD16F03FFA4BF29652CDE902010023E2
:100CB0009021F020FCF77BFC5049204616F01EFEE8
:100CC0004F4B4FF08441009316F010FD4A4916F047
:100CD0000DFD16F027FA4BF29652CDE902010023E2
:100CE000F020A021FCF763FC464C236813F0010FB1
:100CF00004D14548FFF75BFF01232360314642489A
:100D0000FFF75BFF414D0446C021F0204BF29652A5
:100D1000002300950196FCF74AFC0CB34BF2965267
:100D2000D0210023F02000950194FCF740FC384BC3
:100D30002046009316F08EFD364916F0DFFD364949
:100D400016F090FE2C4916F0D1FC16F0EBF94BF2A0
:100D50009652CDE902010023F020E021FCF727FCA8
:100D600000210620FBF703FD002105460520FBF7C7
:100D7000FEFC2A4B04462846009316F06BFD2849DA
:100D800016F0BCFD16F0CEF9264E274DCDE9020136
:100D900000234021F0204BF29652FCF708FC002C77
:100DA0000CBF33462B46214C502101934BF29652F7
:100DB0000023F0200094FCF7FAFBFBF705FF30213D
:100DC000002808BF35464BF29652F02000230094CD
:100DD0000195FCF7ECFB05B0F0BD00BFE0A50020DD
:100DE000F4A500207B450708CCCC90410000CA4206
:100DF000CDCC4C407DD306080AD7A33B6666E63FC0
:100E000050D20608E4A50020E8A5002027E906083E
:100E100059D20608333333400080DB4461D20608E0
:100E20006F12833A4DD2060849D2060848D4060804
:100E300010B5054C2368586AFBF74CFC2368986A88
:100E4000BDE81040FBF74DBCACA6002010B5054C2A
:100E5000890023685962FFF7EBFF2068BDE8104066
:100E600004F0C8BDACA6002010B5074C890023686B
:100E70009962FFF7DDFF6420FBF763F92068BDE8A6
:100E8000104004F0B7BD00BFACA600202DE9FF4123
:100E9000044606F0EDF84BF29655B4F90A204FF6E9
:100EA000FF73002818BF1D46B4F90410B4F90830C8
:100EB000101F083B0C3A0090123102A8FEF7DFF831
:100EC00002A844F20821FCF79AF902210A460B46CF
:100ED00002A80091FEF7D2F902A8FEF7EDF9236807
:100EE0008046DB6920469847236807469B6A204670
:100EF0009847236806465B6A20469847A8F1100881
:100F000007FB08F7361ABDF8083097FBF6F7FF180D
:100F1000BFB2ADF8087002A810372946ADF80C70C2
:100F2000FCF76DF9BDE8FF81036870B5DB690E461B
:100F30000446984716F0010F05460DD02368204659
:100F40005B6A9847854207DD236820461B6A691E55
:100F500098472046FFF79AFF16F0020F0DD023683E
:100F600020469B6A9847854207DA236820461B6A19
:100F7000691C98472046FFF789FF20463146BDE8A7
:100F80007040FDF79FB910B50446FEF7D5FC20462A
:100F9000BDE81040FFF77ABF014B18682C3070474E
:100FA000ACA6002008B5FFF7F7FF0368013B03601C
:100FB00008BD08B5FFF7F0FF03680133036008BD03
:100FC00038B504460D46FFF7E7FF006863682D1843
:100FD0009D4205DBA0688542CCBF0020012038BDC2
:100FE000002038BD416082607047000010B5FFF7F7
:100FF000D3FF006838B100B205F0E0FD03490446B4
:1010000016F06AFF00E0024C204610BD6ED20608C2
:1010100068D2060808B5FFF7E9FF17F053F9C300D7
:101020004FF6F87003EA000008BD73B54FF6FF7481
:101030000E88002A08BF0024B1F90250FFF7D6FF3E
:1010400029460090224630464FF61E03FCF78DFAE3
:101050007CBD2DE9F04100F1300405460F461646EF
:10106000204600210F22DDF81880FFF7BBFF28463D
:1010700021463A463346CDF81880BDE8F041FDF7E9
:1010800083BB00007FB50E46F0233C210446154685
:1010900000930A46283302A8FDF7F1FF20462A46AE
:1010A00002AB1049009605F0B7FF04F120000223BF
:1010B0000D4948F210420094FDF763FB04F14C0027
:1010C00002230A4948F210420094FDF75AFB04F14A
:1010D0007800074948F2104202230094FFF7B9FF55
:1010E0007FBD00BF74D206085AEC060868EC0608FB
:1010F00085D206080A4B73B51A6800F1300405461C
:101100000E462046083201230649FFF79AFA284680
:101110002146054A48F210430096FDF735FB7CBD99
:10112000ACA60020ACDA060898D2060841607047E9
:1011300010B504460BF0B2FB63681B68002B04DAA1
:10114000094ADB4352F8230010BD0C2202FB0300C6
:1011500002780AB9406810BD013B0C38B3F1FF3F7B
:10116000F6D1002010BD00BFB4DA0608436810B500
:101170001C68002C06DB0BF091FB0C2303FB040422
:10118000606810BD002010BD38B50446FFF7D0FFE1
:1011900005462046FFF7EAFF04461DB1284617F032
:1011A00091F805461CB1204617F08CF800E0204667
:1011B000451904B10235ED004FF6F87005EA00005C
:1011C00038BD00002DE9F3414FF6FF7607460C4687
:1011D000002A08BF00260D88FFF7AAFF8046384680
:1011E000FFF7C4FF0746B8F1000F0BD02846B4F94B
:1011F000021032464FF61E03CDF80080FCF7B5F919
:101200002D18ADB2B7B10C4B0435ADB2B4F9021024
:101210000093284632464FF61E03FCF7A6F9043524
:101220002818B4F9021080B232464FF61E03009718
:10123000FCF79BF9BDE8FC81A5D2060838B50C4641
:1012400015460BF02BFB2B1905D5124A13F1050F90
:10125000B8BF13461BE0002D4FF00C020BDD631CE2
:1012600002FB040402E00C348AB90133227B022A17
:10127000F9D1084B0BE0631E02FB040403E014F8F1
:101280000C2D22B9013B002BF9DA4FF0FF33184641
:1012900038BD00BF19FCFFFF10B544684FF0FF32A6
:1012A0002168FFF7CBFF206010BD10B54468012214
:1012B0002168FFF7C3FF206010BD000008B5436838
:1012C0000A461968FFF7BAFF024BC01A18BF01207F
:1012D00008BD00BF19FCFFFF07B5009111461A4673
:1012E00048F21043FDF750FA0EBD00007FB51546D9
:1012F000F023282204460E4600933C219B1802A8A6
:10130000FDF7BDFE2A4602AB214D2046214900963D
:1013100005F082FE04F120002146FFF7EBFE29686C
:1013200004F1600630460C31FFF700FF324604F14D
:1013300068002146184BFFF7CFFF296804F1980693
:1013400030461031FFF7F2FE324604F1A00021468C
:10135000124BFFF7C1FF296804F1D0063046143163
:10136000FFF7E4FE324604F1D80021460C4BFFF7AC
:10137000B3FF296804F5847630461831FFF7D6FEAE
:1013800004F5887021463246064BFFF7A5FF7FBD66
:10139000ACA60020A7D20608BBD20608C9D2060810
:1013A000D9D20608E3D2060810B5044605F0A8FF16
:1013B000014B2046236010BD90C0060810B50446BE
:1013C000FFF7F2FF014B2046236010BDE8C6060878
:1013D00010B50446FFF7EEF9014B2046236010BD1F
:1013E00030C7060810B50446FFF7FEF9014B20464A
:1013F000236010BD78C7060870B50546FFF7F4F9FD
:10140000064B2C4644F8203B05F1B0062046243418
:10141000FFF7E8FFB442F9D1284670BD58C7060867
:1014200010B50446FFF7C6F9014B2046236010BDF6
:1014300098C7060810B50446FFF7B2F9214B2046BD
:1014400040F8243BFFF7E4F904F14400FFF7E0F92A
:1014500004F16400FFF7DCF904F18400FFF7D8F928
:1014600004F1A400FFF7B4FF04F1B000FFF7B0FFF0
:1014700004F1BC00FFF7ACFF04F1C800FFF7A8FFC0
:1014800004F1D400FFF7B8FF04F5C270FFF7A0FF26
:1014900004F5C870FFF79CFF04F5CE70FFF798FFC6
:1014A00004F5D470FFF794FF04F5DA70FFF7A4FF9A
:1014B00004F51970FFF7B4FF04F51B70FFF79EF9F0
:1014C000204610BDC802070810B50446FFF78CF986
:1014D000014B2046236010BDC0C7060810B5044666
:1014E000FFF75EF92D4B204640F8643BFFF7ECFF19
:1014F00004F18400FFF7E8FF04F1A400FFF7E4FF24
:1015000004F1C400FFF784F904F1E400FFF780F967
:1015100004F58270FFF77CF904F59270FFF778F913
:1015200004F5A270FFF774F904F5B270FFF770F9D3
:1015300004F5C270FFF744F904F5CA70FFF75EF9CD
:1015400004F5DC70FFF73CF904F5E470FFF756F999
:1015500004F5F670FFF764FF04F5FA70FFF74EF933
:1015600004F50670FFF75CFF04F50870FFF746F915
:1015700004F51170FFF72CFF04F51470FFF728FF36
:1015800004F51770FFF724FF04F51A70FFF720FF2A
:1015900004F51D70FFF730FF204610BDF00107086D
:1015A00010B5044605F0ACFE114B204640F8203B38
:1015B000FFF704FF04F15000FFF7F6FE04F17C0092
:1015C000FFF7F2FE04F1A800FFF7EEFE04F1D400ED
:1015D000FFF7EAFE04F58070FFF7E6FE04F596706B
:1015E000FFF728FF04F57170FFF778FF204610BD64
:1015F0002003070870B504460D46164605F080FE28
:10160000024B256223606662204670BD380B0708D6
:1016100070B504460D46164605F072FE024B256273
:1016200023606662204670BD180B070870B504463B
:101630000D46164605F064FE034BED00F6002360F0
:1016400025626662204670BDF80A070810B52021A1
:1016500032220446FFF7CEFF014B2046236010BD27
:10166000E8BF0608202110B50A460446FFF7C2FF6E
:10167000014B2046236010BD08C0060810B520218C
:1016800007220446FFF7C4FF014B2046236010BD2C
:1016900028C0060810B5202110220446FFF7C6FF17
:1016A000014B2046236010BD48C00608C822826056
:1016B000503AC260793A0261426101320276427662
:1016C0008276704710B5044605F01AFE034B20469B
:1016D00023604FF0FF332362636210BD60C80608C9
:1016E00030B587B0044606F0F9FB002838D11D4B11
:1016F00003AD93E807000C3385E8070093E8070083
:10170000236A6D46B3F1FF3F85E8070002D1039BD2
:1017100060622362FEF7DEFE032290FBF2F202EB30
:10172000420206A9821A01EB82020346216A52F89C
:101730000C0C9B00401800EBD0704010206252F857
:10174000181C626A891801EBD1714FF6FC724910BE
:1017500003EA0202616207B0BDE83040FAF76ABDF1
:1017600007B030BDD0C8060847F269439A4201D19C
:10177000FFF7B6BF704710B501704270837010BD9F
:1017800002EBD27310B55B10192404FB030312F0B3
:10179000010F0B4493F83C0001D0000910BD00F08C
:1017A0000F0010BD30B502EBD2746410192505FB93
:1017B0000414041912F0010F94F83C2015BF02F034
:1017C0000F0222F00F0242EA0313134384F83C3065
:1017D00030BD73B50646FEF77DFE1923B0FBF3F569
:1017E00005FB1305FEF776FE0E23B0FBF3F404FBB6
:1017F0001304294630462246FFF7C2FF0128EAD1EA
:101800003046294622460223FFF7CCFFE2B20023EE
:1018100001A8E9B2FFF7AFFF019B00201A0CDBB271
:1018200063F307009DF8053063F30F20D3B263F331
:1018300017407CBDF8B5144B4FF4AF76074606FB56
:10184000013600251CE0335D202B02D0232B0CD168
:1018500004E0384621462A46012303E03846214663
:101860002A460023FFF79EFF03E00848F721FBF715
:10187000BDFE0134192CE6D1013519360E2D01D0EB
:101880000024E0E7F8BD00BFE8C80608EDD206086E
:10189000002370B50446C362FEF71CFE1923B0FB9B
:1018A000F3F202FB13036362FEF714FE0E23B0FB98
:1018B000F3F505FB1305666AA562204631462A4604
:1018C000FFF75EFF0128E7D1204631462A4605236F
:1018D000BDE87040FFF766BF2DE9F0474FEA4118B9
:1018E0000F242FE0032B03D8DFE803F005090C0FCA
:1018F00000252E460BE0C0F10F063D4607E02646C8
:10190000054604E02546064601E005463E461349E5
:1019100046EA05154AEA400601EB8606D6F87861E4
:1019200046FA09FC1CF00F0C08BF4FF0020C01EB4B
:101930004C01B1F878140130102822F81510D1D1DB
:10194000013C09D3C4F10F0704F0070948EAE70A8C
